{
  "_format": "hh-sol-artifact-1",
  "contractName": "Voting",
  "sourceName": "contracts/Voting.sol",
  "abi": [
    {
      "inputs": [
        {
          "internalType": "string[]",
          "name": "_candidateNames",
          "type": "string[]"
        }
      ],
      "stateMutability": "nonpayable",
      "type": "constructor"
    },
    {
      "inputs": [
        {
          "internalType": "uint256",
          "name": "",
          "type": "uint256"
        }
      ],
      "name": "candidates",
      "outputs": [
        {
          "internalType": "string",
          "name": "name",
          "type": "string"
        },
        {
          "internalType": "uint256",
          "name": "voteCount",
          "type": "uint256"
        }
      ],
      "stateMutability": "view",
      "type": "function"
    },
    {
      "inputs": [],
      "name": "getAllVotes",
      "outputs": [
        {
          "components": [
            {
              "internalType": "string",
              "name": "name",
              "type": "string"
            },
            {
              "internalType": "uint256",
              "name": "voteCount",
              "type": "uint256"
            }
          ],
          "internalType": "struct Voting.Candidate[]",
          "name": "",
          "type": "tuple[]"
        }
      ],
      "stateMutability": "view",
      "type": "function"
    },
    {
      "inputs": [],
      "name": "getWinner",
      "outputs": [
        {
          "internalType": "string",
          "name": "",
          "type": "string"
        }
      ],
      "stateMutability": "view",
      "type": "function"
    },
    {
      "inputs": [
        {
          "internalType": "address",
          "name": "",
          "type": "address"
        }
      ],
      "name": "hasVoted",
      "outputs": [
        {
          "internalType": "bool",
          "name": "",
          "type": "bool"
        }
      ],
      "stateMutability": "view",
      "type": "function"
    },
    {
      "inputs": [
        {
          "internalType": "uint256",
          "name": "candidateIndex",
          "type": "uint256"
        }
      ],
      "name": "vote",
      "outputs": [],
      "stateMutability": "nonpayable",
      "type": "function"
    }
  ],
  "bytecode": "0x60806040523480156200001157600080fd5b50604051620015d9380380620015d9833981810160405281019062000037919062000373565b60005b8151811015620000dc5760006040518060400160405280848481518110620000675762000066620003c4565b5b60200260200101518152602001600081525090806001815401808255809150506001900390600052602060002090600202016000909190919091506000820151816000019081620000b991906200063e565b506020820151816001015550508080620000d39062000754565b9150506200003a565b5050620007a1565b6000604051905090565b600080fd5b600080fd5b600080fd5b6000601f19601f8301169050919050565b7f4e487b7100000000000000000000000000000000000000000000000000000000600052604160045260246000fd5b6200014882620000fd565b810181811067ffffffffffffffff821117156200016a57620001696200010e565b5b80604052505050565b60006200017f620000e4565b90506200018d82826200013d565b919050565b600067ffffffffffffffff821115620001b057620001af6200010e565b5b602082029050602081019050919050565b600080fd5b600080fd5b600067ffffffffffffffff821115620001e957620001e86200010e565b5b620001f482620000fd565b9050602081019050919050565b60005b838110156200022157808201518184015260208101905062000204565b60008484015250505050565b6000620002446200023e84620001cb565b62000173565b905082815260208101848484011115620002635762000262620001c6565b5b6200027084828562000201565b509392505050565b600082601f83011262000290576200028f620000f8565b5b8151620002a28482602086016200022d565b91505092915050565b6000620002c2620002bc8462000192565b62000173565b90508083825260208201905060208402830185811115620002e857620002e7620001c1565b5b835b818110156200033657805167ffffffffffffffff811115620003115762000310620000f8565b5b80860162000320898262000278565b85526020850194505050602081019050620002ea565b5050509392505050565b600082601f830112620003585762000357620000f8565b5b81516200036a848260208601620002ab565b91505092915050565b6000602082840312156200038c576200038b620000ee565b5b600082015167ffffffffffffffff811115620003ad57620003ac620000f3565b5b620003bb8482850162000340565b91505092915050565b7f4e487b7100000000000000000000000000000000000000000000000000000000600052603260045260246000fd5b600081519050919050565b7f4e487b7100000000000000000000000000000000000000000000000000000000600052602260045260246000fd5b600060028204905060018216806200044657607f821691505b6020821081036200045c576200045b620003fe565b5b50919050565b60008190508160005260206000209050919050565b60006020601f8301049050919050565b600082821b905092915050565b600060088302620004c67fffffffffffffffffffffffffffffffffffffffffffffffffffffffffffffffff8262000487565b620004d2868362000487565b95508019841693508086168417925050509392505050565b6000819050919050565b6000819050919050565b60006200051f620005196200051384620004ea565b620004f4565b620004ea565b9050919050565b6000819050919050565b6200053b83620004fe565b620005536200054a8262000526565b84845462000494565b825550505050565b600090565b6200056a6200055b565b6200057781848462000530565b505050565b5b818110156200059f576200059360008262000560565b6001810190506200057d565b5050565b601f821115620005ee57620005b88162000462565b620005c38462000477565b81016020851015620005d3578190505b620005eb620005e28562000477565b8301826200057c565b50505b505050565b600082821c905092915050565b60006200061360001984600802620005f3565b1980831691505092915050565b60006200062e838362000600565b9150826002028217905092915050565b6200064982620003f3565b67ffffffffffffffff8111156200066557620006646200010e565b5b6200067182546200042d565b6200067e828285620005a3565b600060209050601f831160018114620006b65760008415620006a1578287015190505b620006ad858262000620565b8655506200071d565b601f198416620006c68662000462565b60005b82811015620006f057848901518255600182019150602085019450602081019050620006c9565b868310156200071057848901516200070c601f89168262000600565b8355505b6001600288020188555050505b505050505050565b7f4e487b7100000000000000000000000000000000000000000000000000000000600052601160045260246000fd5b60006200076182620004ea565b91507fffffffffffffffffffffffffffffffffffffffffffffffffffffffffffffffff820362000796576200079562000725565b5b600182019050919050565b610e2880620007b16000396000f3fe608060405234801561001057600080fd5b50600436106100575760003560e01c80630121b93f1461005c57806309eef43e146100785780633477ee2e146100a8578063851b6ef2146100d95780638e7ea5b2146100f7575b600080fd5b61007660048036038101906100719190610838565b610115565b005b610092600480360381019061008d91906108c3565b61036b565b60405161009f919061090b565b60405180910390f35b6100c260048036038101906100bd9190610838565b61038b565b6040516100d09291906109c5565b60405180910390f35b6100e1610447565b6040516100ee9190610b4d565b60405180910390f35b6100ff610542565b60405161010c9190610b6f565b60405180910390f35b600160003373ffffffffffffffffffffffffffffffffffffffff1673ffffffffffffffffffffffffffffffffffffffff16815260200190815260200160002060009054906101000a900460ff16156101a2576040517f08c379a000000000000000000000000000000000000000000000000000000000815260040161019990610bdd565b60405180910390fd5b60008054905081106101e9576040517f08c379a00000000000000000000000000000000000000000000000000000000081526004016101e090610c49565b60405180910390fd5b60018060003373ffffffffffffffffffffffffffffffffffffffff1673ffffffffffffffffffffffffffffffffffffffff16815260200190815260200160002060006101000a81548160ff0219169083151502179055506000818154811061025457610253610c69565b5b9060005260206000209060020201600101600081548092919061027690610cc7565b91905055506103686040518060400160405280601581526020017f566f74657220257320766f74656420666f72202573000000000000000000000081525033600084815481106102c9576102c8610c69565b5b906000526020600020906002020160000180546102e590610d3e565b80601f016020809104026020016040519081016040528092919081815260200182805461031190610d3e565b801561035e5780601f106103335761010080835404028352916020019161035e565b820191906000526020600020905b81548152906001019060200180831161034157829003601f168201915b505050505061070e565b50565b60016020528060005260406000206000915054906101000a900460ff1681565b6000818154811061039b57600080fd5b90600052602060002090600202016000915090508060000180546103be90610d3e565b80601f01602080910402602001604051908101604052809291908181526020018280546103ea90610d3e565b80156104375780601f1061040c57610100808354040283529160200191610437565b820191906000526020600020905b81548152906001019060200180831161041a57829003601f168201915b5050505050908060010154905082565b60606000805480602002602001604051908101604052809291908181526020016000905b82821015610539578382906000526020600020906002020160405180604001604052908160008201805461049e90610d3e565b80601f01602080910402602001604051908101604052809291908181526020018280546104ca90610d3e565b80156105175780601f106104ec57610100808354040283529160200191610517565b820191906000526020600020905b8154815290600101906020018083116104fa57829003601f168201915b505050505081526020016001820154815250508152602001906001019061046b565b50505050905090565b60606000806040518060200160405280600081525090506000805b6000805490508110156106bd57836000828154811061057f5761057e610c69565b5b906000526020600020906002020160010154111561067857600081815481106105ab576105aa610c69565b5b9060005260206000209060020201600101549350600081815481106105d3576105d2610c69565b5b906000526020600020906002020160000180546105ef90610d3e565b80601f016020809104026020016040519081016040528092919081815260200182805461061b90610d3e565b80156106685780601f1061063d57610100808354040283529160200191610668565b820191906000526020600020905b81548152906001019060200180831161064b57829003601f168201915b50505050509250600091506106aa565b836000828154811061068d5761068c610c69565b5b906000526020600020906002020160010154036106a957600191505b5b80806106b590610cc7565b91505061055d565b508015610704576040518060400160405280600b81526020017f4974277320612074696521000000000000000000000000000000000000000000815250935050505061070b565b8193505050505b90565b6107a883838360405160240161072693929190610d7e565b6040516020818303038152906040527fe0e9ad4f000000000000000000000000000000000000000000000000000000007bffffffffffffffffffffffffffffffffffffffffffffffffffffffff19166020820180517bffffffffffffffffffffffffffffffffffffffffffffffffffffffff83818316178352505050506107ad565b505050565b6107c4816107bc6107c76107e8565b63ffffffff16565b50565b60006a636f6e736f6c652e6c6f679050600080835160208501845afa505050565b6107f3819050919050565b6107fb610dc3565b565b600080fd5b6000819050919050565b61081581610802565b811461082057600080fd5b50565b6000813590506108328161080c565b92915050565b60006020828403121561084e5761084d6107fd565b5b600061085c84828501610823565b91505092915050565b600073ffffffffffffffffffffffffffffffffffffffff82169050919050565b600061089082610865565b9050919050565b6108a081610885565b81146108ab57600080fd5b50565b6000813590506108bd81610897565b92915050565b6000602082840312156108d9576108d86107fd565b5b60006108e7848285016108ae565b91505092915050565b60008115159050919050565b610905816108f0565b82525050565b600060208201905061092060008301846108fc565b92915050565b600081519050919050565b600082825260208201905092915050565b60005b83811015610960578082015181840152602081019050610945565b60008484015250505050565b6000601f19601f8301169050919050565b600061098882610926565b6109928185610931565b93506109a2818560208601610942565b6109ab8161096c565b840191505092915050565b6109bf81610802565b82525050565b600060408201905081810360008301526109df818561097d565b90506109ee60208301846109b6565b9392505050565b600081519050919050565b600082825260208201905092915050565b6000819050602082019050919050565b600082825260208201905092915050565b6000610a3d82610926565b610a478185610a21565b9350610a57818560208601610942565b610a608161096c565b840191505092915050565b610a7481610802565b82525050565b60006040830160008301518482036000860152610a978282610a32565b9150506020830151610aac6020860182610a6b565b508091505092915050565b6000610ac38383610a7a565b905092915050565b6000602082019050919050565b6000610ae3826109f5565b610aed8185610a00565b935083602082028501610aff85610a11565b8060005b85811015610b3b5784840389528151610b1c8582610ab7565b9450610b2783610acb565b925060208a01995050600181019050610b03565b50829750879550505050505092915050565b60006020820190508181036000830152610b678184610ad8565b905092915050565b60006020820190508181036000830152610b89818461097d565b905092915050565b7f596f75206861766520616c726561647920766f74656421000000000000000000600082015250565b6000610bc7601783610931565b9150610bd282610b91565b602082019050919050565b60006020820190508181036000830152610bf681610bba565b9050919050565b7f496e76616c69642063616e64696461746520696e646578210000000000000000600082015250565b6000610c33601883610931565b9150610c3e82610bfd565b602082019050919050565b60006020820190508181036000830152610c6281610c26565b9050919050565b7f4e487b7100000000000000000000000000000000000000000000000000000000600052603260045260246000fd5b7f4e487b7100000000000000000000000000000000000000000000000000000000600052601160045260246000fd5b6000610cd282610802565b91507fffffffffffffffffffffffffffffffffffffffffffffffffffffffffffffffff8203610d0457610d03610c98565b5b600182019050919050565b7f4e487b7100000000000000000000000000000000000000000000000000000000600052602260045260246000fd5b60006002820490506001821680610d5657607f821691505b602082108103610d6957610d68610d0f565b5b50919050565b610d7881610885565b82525050565b60006060820190508181036000830152610d98818661097d565b9050610da76020830185610d6f565b8181036040830152610db9818461097d565b9050949350505050565b7f4e487b7100000000000000000000000000000000000000000000000000000000600052605160045260246000fdfea2646970667358221220837feac673d585126e4d20d2ec4e389c159422b264a0129d53b82e33a7d1a3f264736f6c63430008140033",
  "linkReferences": {},
  "deployedLinkReferences": {}
}