{
  "_format": "hh-sol-artifact-1",
  "contractName": "Voting",
  "sourceName": "contracts/Voting.sol",
  "abi": [
    {
      "inputs": [
        {
          "internalType": "string[]",
          "name": "_candidateNames",
          "type": "string[]"
        }
      ],
      "stateMutability": "nonpayable",
      "type": "constructor"
    },
    {
      "anonymous": false,
      "inputs": [
        {
          "indexed": true,
          "internalType": "address",
          "name": "voter",
          "type": "address"
        },
        {
          "indexed": false,
          "internalType": "uint256",
          "name": "candidateIndex",
          "type": "uint256"
        }
      ],
      "name": "Voted",
      "type": "event"
    },
    {
      "inputs": [
        {
          "internalType": "uint256",
          "name": "",
          "type": "uint256"
        }
      ],
      "name": "candidates",
      "outputs": [
        {
          "internalType": "string",
          "name": "name",
          "type": "string"
        },
        {
          "internalType": "uint256",
          "name": "voteCount",
          "type": "uint256"
        }
      ],
      "stateMutability": "view",
      "type": "function"
    },
    {
      "inputs": [],
      "name": "getCandidates",
      "outputs": [
        {
          "components": [
            {
              "internalType": "string",
              "name": "name",
              "type": "string"
            },
            {
              "internalType": "uint256",
              "name": "voteCount",
              "type": "uint256"
            }
          ],
          "internalType": "struct Voting.Candidate[]",
          "name": "",
          "type": "tuple[]"
        }
      ],
      "stateMutability": "view",
      "type": "function"
    },
    {
      "inputs": [
        {
          "internalType": "address",
          "name": "",
          "type": "address"
        }
      ],
      "name": "hasVoted",
      "outputs": [
        {
          "internalType": "bool",
          "name": "",
          "type": "bool"
        }
      ],
      "stateMutability": "view",
      "type": "function"
    },
    {
      "inputs": [],
      "name": "owner",
      "outputs": [
        {
          "internalType": "address",
          "name": "",
          "type": "address"
        }
      ],
      "stateMutability": "view",
      "type": "function"
    },
    {
      "inputs": [
        {
          "internalType": "uint256",
          "name": "candidateIndex",
          "type": "uint256"
        }
      ],
      "name": "vote",
      "outputs": [],
      "stateMutability": "nonpayable",
      "type": "function"
    }
  ],
  "bytecode": "0x60806040523480156200001157600080fd5b5060405162001d9f38038062001d9f833981810160405281019062000037919062000637565b33600260006101000a81548173ffffffffffffffffffffffffffffffffffffffff021916908373ffffffffffffffffffffffffffffffffffffffff160217905550620000e16040518060400160405280601581526020017f436f6e7472616374206465706c6f7965642062793a0000000000000000000000815250600260009054906101000a900473ffffffffffffffffffffffffffffffffffffffff16620001f260201b60201c565b60005b8151811015620001ea576000604051806040016040528084848151811062000111576200011062000688565b5b6020026020010151815260200160008152509080600181540180825580915050600190039060005260206000209060020201600090919091909150600082015181600001908162000163919062000902565b50602082015181600101555050620001d46040518060400160405280601081526020017f43616e6469646174652061646465643a00000000000000000000000000000000815250838381518110620001c057620001bf62000688565b5b60200260200101516200029860201b60201c565b8080620001e19062000a18565b915050620000e4565b505062000b9a565b6200029482826040516024016200020b92919062000afc565b6040516020818303038152906040527f319af333000000000000000000000000000000000000000000000000000000007bffffffffffffffffffffffffffffffffffffffffffffffffffffffff19166020820180517bffffffffffffffffffffffffffffffffffffffffffffffffffffffff83818316178352505050506200033e60201b60201c565b5050565b6200033a8282604051602401620002b192919062000b30565b6040516020818303038152906040527f4b5c4277000000000000000000000000000000000000000000000000000000007bffffffffffffffffffffffffffffffffffffffffffffffffffffffff19166020820180517bffffffffffffffffffffffffffffffffffffffffffffffffffffffff83818316178352505050506200033e60201b60201c565b5050565b62000364816200035f6200036760201b620007b9176200038860201b60201c565b60201c565b50565b60006a636f6e736f6c652e6c6f679050600080835160208501845afa505050565b6200039c60201b62000b0e17819050919050565b620003a662000b6b565b565b6000604051905090565b600080fd5b600080fd5b600080fd5b6000601f19601f8301169050919050565b7f4e487b7100000000000000000000000000000000000000000000000000000000600052604160045260246000fd5b6200040c82620003c1565b810181811067ffffffffffffffff821117156200042e576200042d620003d2565b5b80604052505050565b600062000443620003a8565b905062000451828262000401565b919050565b600067ffffffffffffffff821115620004745762000473620003d2565b5b602082029050602081019050919050565b600080fd5b600080fd5b600067ffffffffffffffff821115620004ad57620004ac620003d2565b5b620004b882620003c1565b9050602081019050919050565b60005b83811015620004e5578082015181840152602081019050620004c8565b60008484015250505050565b60006200050862000502846200048f565b62000437565b9050828152602081018484840111156200052757620005266200048a565b5b62000534848285620004c5565b509392505050565b600082601f830112620005545762000553620003bc565b5b815162000566848260208601620004f1565b91505092915050565b600062000586620005808462000456565b62000437565b90508083825260208201905060208402830185811115620005ac57620005ab62000485565b5b835b81811015620005fa57805167ffffffffffffffff811115620005d557620005d4620003bc565b5b808601620005e489826200053c565b85526020850194505050602081019050620005ae565b5050509392505050565b600082601f8301126200061c576200061b620003bc565b5b81516200062e8482602086016200056f565b91505092915050565b60006020828403121562000650576200064f620003b2565b5b600082015167ffffffffffffffff811115620006715762000670620003b7565b5b6200067f8482850162000604565b91505092915050565b7f4e487b7100000000000000000000000000000000000000000000000000000000600052603260045260246000fd5b600081519050919050565b7f4e487b7100000000000000000000000000000000000000000000000000000000600052602260045260246000fd5b600060028204905060018216806200070a57607f821691505b60208210810362000720576200071f620006c2565b5b50919050565b60008190508160005260206000209050919050565b60006020601f8301049050919050565b600082821b905092915050565b6000600883026200078a7fffffffffffffffffffffffffffffffffffffffffffffffffffffffffffffffff826200074b565b6200079686836200074b565b95508019841693508086168417925050509392505050565b6000819050919050565b6000819050919050565b6000620007e3620007dd620007d784620007ae565b620007b8565b620007ae565b9050919050565b6000819050919050565b620007ff83620007c2565b620008176200080e82620007ea565b84845462000758565b825550505050565b600090565b6200082e6200081f565b6200083b818484620007f4565b505050565b5b8181101562000863576200085760008262000824565b60018101905062000841565b5050565b601f821115620008b2576200087c8162000726565b62000887846200073b565b8101602085101562000897578190505b620008af620008a6856200073b565b83018262000840565b50505b505050565b600082821c905092915050565b6000620008d760001984600802620008b7565b1980831691505092915050565b6000620008f28383620008c4565b9150826002028217905092915050565b6200090d82620006b7565b67ffffffffffffffff811115620009295762000928620003d2565b5b620009358254620006f1565b6200094282828562000867565b600060209050601f8311600181146200097a576000841562000965578287015190505b620009718582620008e4565b865550620009e1565b601f1984166200098a8662000726565b60005b82811015620009b4578489015182556001820191506020850194506020810190506200098d565b86831015620009d45784890151620009d0601f891682620008c4565b8355505b6001600288020188555050505b505050505050565b7f4e487b7100000000000000000000000000000000000000000000000000000000600052601160045260246000fd5b600062000a2582620007ae565b91507fffffffffffffffffffffffffffffffffffffffffffffffffffffffffffffffff820362000a5a5762000a59620009e9565b5b600182019050919050565b600082825260208201905092915050565b600062000a8382620006b7565b62000a8f818562000a65565b935062000aa1818560208601620004c5565b62000aac81620003c1565b840191505092915050565b600073ffffffffffffffffffffffffffffffffffffffff82169050919050565b600062000ae48262000ab7565b9050919050565b62000af68162000ad7565b82525050565b6000604082019050818103600083015262000b18818562000a76565b905062000b29602083018462000aeb565b9392505050565b6000604082019050818103600083015262000b4c818562000a76565b9050818103602083015262000b62818462000a76565b90509392505050565b7f4e487b7100000000000000000000000000000000000000000000000000000000600052605160045260246000fd5b6111f58062000baa6000396000f3fe608060405234801561001057600080fd5b50600436106100575760003560e01c80630121b93f1461005c57806306a49fce1461007857806309eef43e146100965780633477ee2e146100c65780638da5cb5b146100f7575b600080fd5b61007660048036038101906100719190610b53565b610115565b005b61008061057e565b60405161008d9190610d1e565b60405180910390f35b6100b060048036038101906100ab9190610d9e565b6106b7565b6040516100bd9190610de6565b60405180910390f35b6100e060048036038101906100db9190610b53565b6106d7565b6040516100ee929190610e5a565b60405180910390f35b6100ff610793565b60405161010c9190610e99565b60405180910390f35b6101546040518060400160405280600e81526020017f566f74657220616464726573733a000000000000000000000000000000000000815250336107da565b6101936040518060400160405280601b81526020017f566f74696e6720666f722063616e64696461746520696e6465783a000000000081525082610876565b600160003373ffffffffffffffffffffffffffffffffffffffff1673ffffffffffffffffffffffffffffffffffffffff16815260200190815260200160002060009054906101000a900460ff1615610220576040517f08c379a000000000000000000000000000000000000000000000000000000000815260040161021790610f00565b60405180910390fd5b6000805490508110610267576040517f08c379a000000000000000000000000000000000000000000000000000000000815260040161025e90610f6c565b60405180910390fd5b6000818154811061027b5761027a610f8c565b5b9060005260206000209060020201600101600081548092919061029d90610fea565b919050555060018060003373ffffffffffffffffffffffffffffffffffffffff1673ffffffffffffffffffffffffffffffffffffffff16815260200190815260200160002060006101000a81548160ff0219169083151502179055506103e56040518060400160405280601481526020017f566f7465207265676973746572656420666f723a0000000000000000000000008152506000838154811061034657610345610f8c565b5b9060005260206000209060020201600001805461036290611061565b80601f016020809104026020016040519081016040528092919081815260200182805461038e90611061565b80156103db5780601f106103b0576101008083540402835291602001916103db565b820191906000526020600020905b8154815290600101906020018083116103be57829003601f168201915b5050505050610912565b61052d6040518060400160405280600f81526020017f546f74616c20766f74657320666f7200000000000000000000000000000000008152506000838154811061043257610431610f8c565b5b9060005260206000209060020201600001805461044e90611061565b80601f016020809104026020016040519081016040528092919081815260200182805461047a90611061565b80156104c75780601f1061049c576101008083540402835291602001916104c7565b820191906000526020600020905b8154815290600101906020018083116104aa57829003601f168201915b50505050506040518060400160405280600181526020017f3a000000000000000000000000000000000000000000000000000000000000008152506000858154811061051657610515610f8c565b5b9060005260206000209060020201600101546109ae565b3373ffffffffffffffffffffffffffffffffffffffff167f4d99b957a2bc29a30ebd96a7be8e68fe50a3c701db28a91436490b7d53870ca4826040516105739190611092565b60405180910390a250565b60606105be6040518060400160405280601781526020017f4665746368696e672063616e646964617465206c697374000000000000000000815250610a50565b6000805480602002602001604051908101604052809291908181526020016000905b828210156106ae578382906000526020600020906002020160405180604001604052908160008201805461061390611061565b80601f016020809104026020016040519081016040528092919081815260200182805461063f90611061565b801561068c5780601f106106615761010080835404028352916020019161068c565b820191906000526020600020905b81548152906001019060200180831161066f57829003601f168201915b50505050508152602001600182015481525050815260200190600101906105e0565b50505050905090565b60016020528060005260406000206000915054906101000a900460ff1681565b600081815481106106e757600080fd5b906000526020600020906002020160009150905080600001805461070a90611061565b80601f016020809104026020016040519081016040528092919081815260200182805461073690611061565b80156107835780601f1061075857610100808354040283529160200191610783565b820191906000526020600020905b81548152906001019060200180831161076657829003601f168201915b5050505050908060010154905082565b600260009054906101000a900473ffffffffffffffffffffffffffffffffffffffff1681565b60006a636f6e736f6c652e6c6f679050600080835160208501845afa505050565b61087282826040516024016107f09291906110ad565b6040516020818303038152906040527f319af333000000000000000000000000000000000000000000000000000000007bffffffffffffffffffffffffffffffffffffffffffffffffffffffff19166020820180517bffffffffffffffffffffffffffffffffffffffffffffffffffffffff8381831617835250505050610ae9565b5050565b61090e828260405160240161088c929190610e5a565b6040516020818303038152906040527fb60e72cc000000000000000000000000000000000000000000000000000000007bffffffffffffffffffffffffffffffffffffffffffffffffffffffff19166020820180517bffffffffffffffffffffffffffffffffffffffffffffffffffffffff8381831617835250505050610ae9565b5050565b6109aa82826040516024016109289291906110dd565b6040516020818303038152906040527f4b5c4277000000000000000000000000000000000000000000000000000000007bffffffffffffffffffffffffffffffffffffffffffffffffffffffff19166020820180517bffffffffffffffffffffffffffffffffffffffffffffffffffffffff8381831617835250505050610ae9565b5050565b610a4a848484846040516024016109c89493929190611114565b6040516020818303038152906040527f8eafb02b000000000000000000000000000000000000000000000000000000007bffffffffffffffffffffffffffffffffffffffffffffffffffffffff19166020820180517bffffffffffffffffffffffffffffffffffffffffffffffffffffffff8381831617835250505050610ae9565b50505050565b610ae681604051602401610a64919061116e565b6040516020818303038152906040527f41304fac000000000000000000000000000000000000000000000000000000007bffffffffffffffffffffffffffffffffffffffffffffffffffffffff19166020820180517bffffffffffffffffffffffffffffffffffffffffffffffffffffffff8381831617835250505050610ae9565b50565b610b0081610af86107b9610b03565b63ffffffff16565b50565b610b0e819050919050565b610b16611190565b565b600080fd5b6000819050919050565b610b3081610b1d565b8114610b3b57600080fd5b50565b600081359050610b4d81610b27565b92915050565b600060208284031215610b6957610b68610b18565b5b6000610b7784828501610b3e565b91505092915050565b600081519050919050565b600082825260208201905092915050565b6000819050602082019050919050565b600081519050919050565b600082825260208201905092915050565b60005b83811015610be6578082015181840152602081019050610bcb565b60008484015250505050565b6000601f19601f8301169050919050565b6000610c0e82610bac565b610c188185610bb7565b9350610c28818560208601610bc8565b610c3181610bf2565b840191505092915050565b610c4581610b1d565b82525050565b60006040830160008301518482036000860152610c688282610c03565b9150506020830151610c7d6020860182610c3c565b508091505092915050565b6000610c948383610c4b565b905092915050565b6000602082019050919050565b6000610cb482610b80565b610cbe8185610b8b565b935083602082028501610cd085610b9c565b8060005b85811015610d0c5784840389528151610ced8582610c88565b9450610cf883610c9c565b925060208a01995050600181019050610cd4565b50829750879550505050505092915050565b60006020820190508181036000830152610d388184610ca9565b905092915050565b600073ffffffffffffffffffffffffffffffffffffffff82169050919050565b6000610d6b82610d40565b9050919050565b610d7b81610d60565b8114610d8657600080fd5b50565b600081359050610d9881610d72565b92915050565b600060208284031215610db457610db3610b18565b5b6000610dc284828501610d89565b91505092915050565b60008115159050919050565b610de081610dcb565b82525050565b6000602082019050610dfb6000830184610dd7565b92915050565b600082825260208201905092915050565b6000610e1d82610bac565b610e278185610e01565b9350610e37818560208601610bc8565b610e4081610bf2565b840191505092915050565b610e5481610b1d565b82525050565b60006040820190508181036000830152610e748185610e12565b9050610e836020830184610e4b565b9392505050565b610e9381610d60565b82525050565b6000602082019050610eae6000830184610e8a565b92915050565b7f596f75206861766520616c726561647920766f74656400000000000000000000600082015250565b6000610eea601683610e01565b9150610ef582610eb4565b602082019050919050565b60006020820190508181036000830152610f1981610edd565b9050919050565b7f496e76616c69642063616e646964617465000000000000000000000000000000600082015250565b6000610f56601183610e01565b9150610f6182610f20565b602082019050919050565b60006020820190508181036000830152610f8581610f49565b9050919050565b7f4e487b7100000000000000000000000000000000000000000000000000000000600052603260045260246000fd5b7f4e487b7100000000000000000000000000000000000000000000000000000000600052601160045260246000fd5b6000610ff582610b1d565b91507fffffffffffffffffffffffffffffffffffffffffffffffffffffffffffffffff820361102757611026610fbb565b5b600182019050919050565b7f4e487b7100000000000000000000000000000000000000000000000000000000600052602260045260246000fd5b6000600282049050600182168061107957607f821691505b60208210810361108c5761108b611032565b5b50919050565b60006020820190506110a76000830184610e4b565b92915050565b600060408201905081810360008301526110c78185610e12565b90506110d66020830184610e8a565b9392505050565b600060408201905081810360008301526110f78185610e12565b9050818103602083015261110b8184610e12565b90509392505050565b6000608082019050818103600083015261112e8187610e12565b905081810360208301526111428186610e12565b905081810360408301526111568185610e12565b90506111656060830184610e4b565b95945050505050565b600060208201905081810360008301526111888184610e12565b905092915050565b7f4e487b7100000000000000000000000000000000000000000000000000000000600052605160045260246000fdfea2646970667358221220ca3cefbd8376786741175b404a800313cad9e9ce2951617f5873bb8e6bdc423664736f6c63430008140033",
  "linkReferences": {},
  "deployedLinkReferences": {}
}